:020000040000FA
:0600000087EF00F0120082
:020006000000F8
:08000800060EF66E000EF76E05
:10001000000EF86E03010900F5508E6F0900F550CF
:100020008F6F03E18E6701D03DD00900F550896FD5
:100030000900F5508A6F0900F5508B6F090009001F
:10004000F550E96E0900F550EA6E09000900090053
:10005000F5508C6F0900F5508D6F09000900F6CF3F
:1000600090F3F7CF91F3F8CF92F389C3F6FF8AC3E9
:10007000F7FF8BC3F8FF03018C5302E18D5307E0B8
:100080000900F550EE6E8C07F8E28D07F9D790C3A2
:10009000F6FF91C3F7FF92C3F8FF03018E07000E2E
:0600A0008F5BBFD71200C8
:0A00A600D9CFE6FFDACFE6FFE1CF85
:1000B000D9FFE2CFDAFFE652010EDF6EDFCF02F0AA
:1000C0000F0EE76E0218E8AE02D0023403D0E750FC
:1000D000D880025405E3936ADF50816EDF2AEED7A1
:0E00E000E552E552E5CFDAFFE7CFD9FF120077
:0200EE00000E02
:1000F000F36E00EE00F0060E01D81200EA6002D0A6
:0E010000EE6AFCD7F350E9601200EE6AFCD7FD
:02010E0013EEEE
:1001100081F023EE81F0F86A019C04EC00F095EC8C
:0A01200000F053EC00F0FBD71200D2
:02012A001200C1
:020000040030CA
:0100010022DC
:010003000EEE
:010006008178
:00000001FF
