:0600000000F06AEF04F0BD
:100600000048656C6C6F20576F726C640000FFFFD0
:10061000036E0F0E83160F0E951695949592959076
:100620008C948C928C9057EC04F0300E15EC04F006
:100630000F0E026E9E0EFFFFE82EFDD7022EFBD797
:10064000300E15EC04F00F0E026E9E0EFFFFE82E2A
:10065000FDD7022EFBD7320E15EC04F0FFFF36EC6F
:1006600004F00009D8A4FAD7FFFF36EC04F0000923
:10067000D8A4FAD7035015EC04F0FFFF36EC04F0D1
:100680000009D8A4FAD7080E15EC04F0FFFF36ECE9
:1006900004F00009D8A4FAD70F0E15EC04F0FFFF00
:1006A00036EC04F00009D8A4FAD7010E15EC04F0DA
:1006B000FFFF36EC04F00009D8A4FAD7040E15ECBD
:1006C00004F0FFFF36EC04F00009D8A4FAD7800E3E
:1006D00090EC03F01200FFFFFFFF620ED36E0F0ECF
:1006E000C16E000E926E000E956E000E936E000E9F
:1006F000946E000E8A6E000E8C6EF4EC03F0FFFF19
:1007000036EC04F00009D8A4FAD7430E90EC03F0BD
:10071000010E026E060E036EB2EC03F0FFFFFED771
:10072000FFFF016E0F0E95160F0E83160150800904
:10073000F00B83128C948C9262EC04F08C8062EC4F
:1007400004F08C900F0E83160138F00BF00B83121F
:1007500062EC04F08C8062EC04F08C90F00E951248
:100760001200FFFFFFFF11D0FFFF36EC04F000097D
:10077000D8A4FAD702C0F6FF03C0F7FF0800FFFFB6
:10078000F550D3EC03F0024A032AFFFF02C0F6FF44
:1007900003C0F7FF0800FFFFF5500009D8B41200AE
:1007A000FFFFE2D7FFFFFFFF016E0F0E95160F0E42
:1007B00083160150F00B83128C828C9462EC04F04F
:1007C0008C8062EC04F08C900F0E83160138F00BD5
:1007D000F00B831262EC04F08C8062EC04F08C90DD
:1007E000F00E95121200FFFFFFFF280E07EC03F03A
:1007F000FFFF36EC04F00009D8A4FAD7280E15EC58
:1008000004F0FFFF36EC04F00009D8A4FAD70F0E6D
:1008100015EC04F0FFFF36EC04F00009D8A4FAD779
:10082000060E15EC04F01200FFFFFFFF016E0F0E25
:1008300095160F0E83160150F00B83128C948C9238
:1008400062EC04F08C8062EC04F08C900F0E831646
:100850000138F00BF00B831262EC04F08C8062EC38
:1008600004F08C90F00E95121200FFFFFFFF8C84B5
:100870008C9262EC04F08C8062EC04F083AE0AD0BF
:100880008C9062EC04F08C8062EC04F08C908C9480
:10089000010E0AD0FFFF8C9062EC04F08C8062ECB9
:1008A00004F08C908C94000EFFFF1200FFFFFFFFFE
:1008B0000F0E016E9E0EFFFFE82EFDD7012EFBD717
:1008C0001200FFFFFFFF040EFFFFE82EFDD700D050
:1008D0001200FFFF000EF86E060EF76E00016CEFBF
:0408E00003F0FFFF23
:020000040020DA
:08000000FFFFFFFFFFFFFFFF00
:020000040030CA
:0E000000FF220F0EFF0181FF0FC00FE00F4027
:00000001FF
